{
  "address": "0xdd1090503fF10432d09e1244BCA63Aea002A3cbb",
  "abi": [
    {
      "anonymous": false,
      "inputs": [
        {
          "indexed": true,
          "internalType": "address",
          "name": "instance",
          "type": "address"
        },
        {
          "indexed": true,
          "internalType": "address",
          "name": "creator",
          "type": "address"
        }
      ],
      "name": "DocumentCertNFTDeployed",
      "type": "event"
    },
    {
      "anonymous": false,
      "inputs": [
        {
          "indexed": true,
          "internalType": "address",
          "name": "instance",
          "type": "address"
        },
        {
          "indexed": true,
          "internalType": "address",
          "name": "creator",
          "type": "address"
        }
      ],
      "name": "DocumentStoreDeployed",
      "type": "event"
    },
    {
      "inputs": [
        {
          "internalType": "string",
          "name": "name",
          "type": "string"
        },
        {
          "internalType": "string",
          "name": "nftName",
          "type": "string"
        },
        {
          "internalType": "string",
          "name": "nftSymbol",
          "type": "string"
        },
        {
          "internalType": "string",
          "name": "domainName",
          "type": "string"
        }
      ],
      "name": "deploy",
      "outputs": [
        {
          "internalType": "address",
          "name": "",
          "type": "address"
        },
        {
          "internalType": "address",
          "name": "",
          "type": "address"
        }
      ],
      "stateMutability": "nonpayable",
      "type": "function"
    }
  ],
  "transactionHash": "0x1e39035c5a99e98c3128e596b7eb875e1d12911710fbc43aca9b4e5de3a85519",
  "args": [],
  "numDeployments": 2,
  "solcInputHash": "0b5a4f806a7194e2ba8df0d0d771b502",
  "bytecode": "0x608060405234801561001057600080fd5b506145e2806100206000396000f3fe60806040523480156200001157600080fd5b50600436106200002e5760003560e01c8063239ed53c1462000033575b600080fd5b6200004a6200004436600462000279565b6200006e565b604080516001600160a01b0393841681529290911660208301520160405180910390f35b60008060008633856040516200008490620001ce565b62000092939291906200037c565b604051809103906000f080158015620000af573d6000803e3d6000fd5b5060405190915033906001600160a01b038316907ff23fd73c85bfbc0e685881403e392b44f15a72a5eba8537f26f04205cd3cf43690600090a3600086868333604051620000fd90620001dc565b6200010c9493929190620003be565b604051809103906000f08015801562000129573d6000803e3d6000fd5b5060405190915033906001600160a01b038316907ff23fd73c85bfbc0e685881403e392b44f15a72a5eba8537f26f04205cd3cf43690600090a3604051632150b7d760e21b81526001600160a01b038281166004830152831690638542df5c90602401600060405180830381600087803b158015620001a757600080fd5b505af1158015620001bc573d6000803e3d6000fd5b50939a92995091975050505050505050565b6118dc806200042383390190565b6128ae8062001cff83390190565b600082601f830112620001fb578081fd5b813567ffffffffffffffff808211156200021957620002196200040c565b604051601f8301601f19908116603f011681019082821181831017156200024457620002446200040c565b816040528381528660208588010111156200025d578485fd5b8360208701602083013792830160200193909352509392505050565b600080600080608085870312156200028f578384fd5b843567ffffffffffffffff80821115620002a7578586fd5b620002b588838901620001ea565b95506020870135915080821115620002cb578485fd5b620002d988838901620001ea565b94506040870135915080821115620002ef578384fd5b620002fd88838901620001ea565b9350606087013591508082111562000313578283fd5b506200032287828801620001ea565b91505092959194509250565b60008151808452815b81811015620003555760208185018101518683018201520162000337565b81811115620003675782602083870101525b50601f01601f19169290920160200192915050565b6000606082526200039160608301866200032e565b6001600160a01b03851660208401528281036040840152620003b481856200032e565b9695505050505050565b600060808252620003d360808301876200032e565b8281036020840152620003e781876200032e565b6001600160a01b03958616604085015293909416606090920191909152509392505050565b634e487b7160e01b600052604160045260246000fdfe60806040523480156200001157600080fd5b50604051620018dc380380620018dc833981016040819052620000349162000571565b6200004083836200005f565b80516200005590609c90602084019062000418565b505050506200064b565b600054610100900460ff1615808015620000805750600054600160ff909116105b80620000b057506200009d306200019f60201b6200085e1760201c565b158015620000b0575060005460ff166001145b620001195760405162461bcd60e51b815260206004820152602e60248201527f496e697469616c697a61626c653a20636f6e747261637420697320616c72656160448201526d191e481a5b9a5d1a585b1a5e995960921b60648201526084015b60405180910390fd5b6000805460ff1916600117905580156200013d576000805461ff0019166101001790555b6200014882620001ae565b6200015383620002c7565b80156200019a576000805461ff0019169055604051600181527f7f26b83ff96e1f2b6a682f133852f6798a09c465da95921460cefb38474024989060200160405180910390a15b505050565b6001600160a01b03163b151590565b600054610100900460ff166200020a5760405162461bcd60e51b815260206004820152602b6024820152600080516020620018bc83398151915260448201526a6e697469616c697a696e6760a81b606482015260840162000110565b6001600160a01b038116620002525760405162461bcd60e51b815260206004820152600d60248201526c4f776e6572206973207a65726f60981b604482015260640162000110565b6200025f6000336200036b565b6200026c6000826200036b565b620002987f114e74f6ea3bd819998f78687bfcb11b140da08e9b7d222fa9c1f1ba1f2aa122826200036b565b620002c47fce3f34913921da558f105cefb578d87278debbbd073a8d552b5de0d168deee30826200036b565b50565b600054610100900460ff16620003235760405162461bcd60e51b815260206004820152602b6024820152600080516020620018bc83398151915260448201526a6e697469616c697a696e6760a81b606482015260840162000110565b604080518082019091526005808252640322e332e360dc1b6020909201918252620003519160029162000418565b5080516200036790600190602084019062000418565b5050565b60008281526069602090815260408083206001600160a01b038516845290915290205462000367908390839060ff16620003675760008281526069602090815260408083206001600160a01b03851684529091529020805460ff19166001179055620003d43390565b6001600160a01b0316816001600160a01b0316837f2f8788117e7eff1d82e926ec794901d17c78024a50270940304540a733656f0d60405160405180910390a45050565b8280546200042690620005f8565b90600052602060002090601f0160209004810192826200044a576000855562000495565b82601f106200046557805160ff191683800117855562000495565b8280016001018555821562000495579182015b828111156200049557825182559160200191906001019062000478565b50620004a3929150620004a7565b5090565b5b80821115620004a35760008155600101620004a8565b600082601f830112620004cf578081fd5b81516001600160401b0380821115620004ec57620004ec62000635565b604051601f8301601f19908116603f0116810190828211818310171562000517576200051762000635565b8160405283815260209250868385880101111562000533578485fd5b8491505b8382101562000556578582018301518183018401529082019062000537565b838211156200056757848385830101525b9695505050505050565b60008060006060848603121562000586578283fd5b83516001600160401b03808211156200059d578485fd5b620005ab87838801620004be565b602087015190955091506001600160a01b0382168214620005ca578384fd5b604086015191935080821115620005df578283fd5b50620005ee86828701620004be565b9150509250925092565b6002810460018216806200060d57607f821691505b602082108114156200062f57634e487b7160e01b600052602260045260246000fd5b50919050565b634e487b7160e01b600052604160045260246000fd5b611261806200065b6000396000f3fe608060405234801561001057600080fd5b506004361061018e5760003560e01c80635a9e03ca116100de5780638bc36c9111610097578063b75c7dc611610071578063b75c7dc6146103ab578063bf40b904146103be578063d547741f146103d1578063d702076e146103e45761018e565b80638bc36c911461037057806391d1485414610390578063a217fddf146103a35761018e565b80635a9e03ca146102e15780637c4acabf146102f45780637df208261461031b57806382aefa241461032e5780638542df5c14610355578063895d7386146103685761018e565b806333358d2d1161014b5780634294857f116101255780634294857f146102915780634ada8076146102b3578063542e1c93146102c657806354fd4d50146102d95761018e565b806333358d2d1461024b578063339b6b391461026b57806336568abe1461027e5761018e565b806301ffc9a71461019357806306fdde03146101bb5780630f75e81f146101d0578063163aa631146101e5578063248a9ca3146102075780632f2ff15d14610238575b600080fd5b6101a66101a1366004610eff565b61040f565b60405190151581526020015b60405180910390f35b6101c3610448565b6040516101b29190611029565b6101e36101de366004610e9b565b6104d6565b005b6101a66101f3366004610e9b565b600090815260036020526040902054151590565b61022a610215366004610e9b565b60009081526069602052604090206001015490565b6040519081526020016101b2565b6101e3610246366004610eb3565b610545565b61022a610259366004610e9b565b60036020526000908152604090205481565b6101a6610279366004610ede565b61056a565b6101e361028c366004610eb3565b61059c565b6101a661029f366004610e9b565b600090815260046020526040902054151590565b6101e36102c1366004610df4565b61061a565b6101e36102d4366004610f27565b61064d565b6101c361066b565b6101a66102ef366004610ede565b610678565b61022a7fce3f34913921da558f105cefb578d87278debbbd073a8d552b5de0d168deee3081565b6101e3610329366004610df4565b6106a6565b61022a7f114e74f6ea3bd819998f78687bfcb11b140da08e9b7d222fa9c1f1ba1f2aa12281565b6101e3610363366004610dda565b6106d9565b6101c3610707565b61022a61037e366004610e9b565b60046020526000908152604090205481565b6101a661039e366004610eb3565b610714565b61022a600081565b6101a66103b9366004610e9b565b61073f565b61022a6103cc366004610e9b565b6107aa565b6101e36103df366004610eb3565b610839565b609b546103f7906001600160a01b031681565b6040516001600160a01b0390911681526020016101b2565b60006001600160e01b03198216637965db0b60e01b148061044057506301ffc9a760e01b6001600160e01b03198316145b90505b919050565b60018054610455906111af565b80601f0160208091040260200160405190810160405280929190818152602001828054610481906111af565b80156104ce5780601f106104a3576101008083540402835291602001916104ce565b820191906000526020600020905b8154815290600101906020018083116104b157829003601f168201915b505050505081565b7f114e74f6ea3bd819998f78687bfcb11b140da08e9b7d222fa9c1f1ba1f2aa1226105008161086d565b6000828152600360205260409020548290156105375760405162461bcd60e51b815260040161052e906110a3565b60405180910390fd5b6105408361087a565b505050565b6000828152606960205260409020600101546105608161086d565b61054083836108e4565b6000828152600460205260408120548210801590610595575060008381526004602052604090205415155b9392505050565b6001600160a01b038116331461060c5760405162461bcd60e51b815260206004820152602f60248201527f416363657373436f6e74726f6c3a2063616e206f6e6c792072656e6f756e636560448201526e103937b632b9903337b91039b2b63360891b606482015260840161052e565b610616828261096a565b5050565b7fce3f34913921da558f105cefb578d87278debbbd073a8d552b5de0d168deee306106448161086d565b610616826109d1565b60006106588161086d565b815161054090609c906020850190610d2a565b60028054610455906111af565b6000828152600360205260408120541580159061059557505060009182526003602052604090912054111590565b7f114e74f6ea3bd819998f78687bfcb11b140da08e9b7d222fa9c1f1ba1f2aa1226106d08161086d565b61061682610a20565b60006106e48161086d565b50609b80546001600160a01b0319166001600160a01b0392909216919091179055565b609c8054610455906111af565b60009182526069602090815260408084206001600160a01b0393909316845291905290205460ff1690565b60007fce3f34913921da558f105cefb578d87278debbbd073a8d552b5de0d168deee3061076b8161086d565b6000838152600460205260409020548390156107995760405162461bcd60e51b815260040161052e9061105c565b6107a284610a6e565b949350505050565b60008181526003602052604081205482906108215760405162461bcd60e51b815260206004820152603160248201527f4572726f723a204f6e6c792069737375656420646f63756d656e742068617368604482015270195cc818d85b881899481c995d9bdad959607a1b606482015260840161052e565b60008381526003602052604090205491505b50919050565b6000828152606960205260409020600101546108548161086d565b610540838361096a565b6001600160a01b03163b151590565b6108778133610add565b50565b6000818152600360205260409020548190156108a85760405162461bcd60e51b815260040161052e906110a3565b6000828152600360205260408082204390555183917f01a1249f2caa0445b8391e02413d26f0d409dabe5330cd1d04d3d0801fc42db391a25050565b6108ee8282610714565b6106165760008281526069602090815260408083206001600160a01b03851684529091529020805460ff191660011790556109263390565b6001600160a01b0316816001600160a01b0316837f2f8788117e7eff1d82e926ec794901d17c78024a50270940304540a733656f0d60405160405180910390a45050565b6109748282610714565b156106165760008281526069602090815260408083206001600160a01b0385168085529252808320805460ff1916905551339285917ff6391f5c32d9c69d2a47ea670b442974b53935d1edc7fd64eb21e047a839171b9190a45050565b60005b815181101561061657610a0d828281518110610a0057634e487b7160e01b600052603260045260246000fd5b6020026020010151610a6e565b5080610a18816111e4565b9150506109d4565b60005b815181101561061657610a5c828281518110610a4f57634e487b7160e01b600052603260045260246000fd5b602002602001015161087a565b80610a66816111e4565b915050610a23565b600081815260046020526040812054829015610a9c5760405162461bcd60e51b815260040161052e9061105c565b6000838152600460205260408082204390555184917f7283b5ab9758f7fba773279e4fd50ea7b136bd1d8371dcae9c5ce529c55343d791a250600192915050565b610ae78282610714565b61061657610af481610b36565b610aff836020610b48565b604051602001610b10929190610fb4565b60408051601f198184030181529082905262461bcd60e51b825261052e91600401611029565b60606104406001600160a01b03831660145b60606000610b57836002611149565b610b62906002611131565b67ffffffffffffffff811115610b8857634e487b7160e01b600052604160045260246000fd5b6040519080825280601f01601f191660200182016040528015610bb2576020820181803683370190505b509050600360fc1b81600081518110610bdb57634e487b7160e01b600052603260045260246000fd5b60200101906001600160f81b031916908160001a905350600f60fb1b81600181518110610c1857634e487b7160e01b600052603260045260246000fd5b60200101906001600160f81b031916908160001a9053506000610c3c846002611149565b610c47906001611131565b90505b6001811115610cdb576f181899199a1a9b1b9c1cb0b131b232b360811b85600f1660108110610c8957634e487b7160e01b600052603260045260246000fd5b1a60f81b828281518110610cad57634e487b7160e01b600052603260045260246000fd5b60200101906001600160f81b031916908160001a90535060049490941c93610cd481611198565b9050610c4a565b5083156105955760405162461bcd60e51b815260206004820181905260248201527f537472696e67733a20686578206c656e67746820696e73756666696369656e74604482015260640161052e565b828054610d36906111af565b90600052602060002090601f016020900481019282610d585760008555610d9e565b82601f10610d7157805160ff1916838001178555610d9e565b82800160010185558215610d9e579182015b82811115610d9e578251825591602001919060010190610d83565b50610daa929150610dae565b5090565b5b80821115610daa5760008155600101610daf565b80356001600160a01b038116811461044357600080fd5b600060208284031215610deb578081fd5b61059582610dc3565b60006020808385031215610e06578182fd5b823567ffffffffffffffff80821115610e1d578384fd5b818501915085601f830112610e30578384fd5b813581811115610e4257610e42611215565b8381029150610e52848301611100565b8181528481019084860184860187018a1015610e6c578788fd5b8795505b83861015610e8e578035835260019590950194918601918601610e70565b5098975050505050505050565b600060208284031215610eac578081fd5b5035919050565b60008060408385031215610ec5578081fd5b82359150610ed560208401610dc3565b90509250929050565b60008060408385031215610ef0578182fd5b50508035926020909101359150565b600060208284031215610f10578081fd5b81356001600160e01b031981168114610595578182fd5b60006020808385031215610f39578182fd5b823567ffffffffffffffff80821115610f50578384fd5b818501915085601f830112610f63578384fd5b813581811115610f7557610f75611215565b610f87601f8201601f19168501611100565b91508082528684828501011115610f9c578485fd5b80848401858401378101909201929092529392505050565b60007f416363657373436f6e74726f6c3a206163636f756e742000000000000000000082528351610fec816017850160208801611168565b7001034b99036b4b9b9b4b733903937b6329607d1b601791840191820152835161101d816028840160208801611168565b01602801949350505050565b6000602082528251806020840152611048816040850160208701611168565b601f01601f19169190910160400192915050565b60208082526027908201527f4572726f723a204861736820686173206265656e207265766f6b65642070726560408201526676696f75736c7960c81b606082015260800190565b6020808252603a908201527f4572726f723a204f6e6c792068617368657320746861742068617665206e6f7460408201527f206265656e206973737565642063616e20626520697373756564000000000000606082015260800190565b604051601f8201601f1916810167ffffffffffffffff8111828210171561112957611129611215565b604052919050565b60008219821115611144576111446111ff565b500190565b6000816000190483118215151615611163576111636111ff565b500290565b60005b8381101561118357818101518382015260200161116b565b83811115611192576000848401525b50505050565b6000816111a7576111a76111ff565b506000190190565b6002810460018216806111c357607f821691505b6020821081141561083357634e487b7160e01b600052602260045260246000fd5b60006000198214156111f8576111f86111ff565b5060010190565b634e487b7160e01b600052601160045260246000fd5b634e487b7160e01b600052604160045260246000fdfea2646970667358221220e262b6ed741652b96794e867781373e0831069b8637d9b9970405bf8f5565f4064736f6c63430008020033496e697469616c697a61626c653a20636f6e7472616374206973206e6f74206960806040523480156200001157600080fd5b50604051620028ae380380620028ae833981016040819052620000349162000319565b8351849084906200004d906000906020850190620001a3565b50805162000063906001906020840190620001a3565b506200007591506000905033620000f5565b620000906000805160206200288e83398151915233620000f5565b6200009d600082620000f5565b620000b86000805160206200288e83398151915282620000f5565b600c80546001600160a01b0319166001600160a01b038416179055620000eb600d6200019a602090811b62000b0217901c565b50505050620003f8565b6000828152600b602090815260408083206001600160a01b038516845290915290205460ff1662000196576000828152600b602090815260408083206001600160a01b03851684529091529020805460ff19166001179055620001553390565b6001600160a01b0316816001600160a01b0316837f2f8788117e7eff1d82e926ec794901d17c78024a50270940304540a733656f0d60405160405180910390a45b5050565b80546001019055565b828054620001b190620003a5565b90600052602060002090601f016020900481019282620001d5576000855562000220565b82601f10620001f057805160ff191683800117855562000220565b8280016001018555821562000220579182015b828111156200022057825182559160200191906001019062000203565b506200022e92915062000232565b5090565b5b808211156200022e576000815560010162000233565b80516001600160a01b03811681146200026157600080fd5b919050565b600082601f83011262000277578081fd5b81516001600160401b0380821115620002945762000294620003e2565b604051601f8301601f19908116603f01168101908282118183101715620002bf57620002bf620003e2565b81604052838152602092508683858801011115620002db578485fd5b8491505b83821015620002fe5785820183015181830184015290820190620002df565b838211156200030f57848385830101525b9695505050505050565b600080600080608085870312156200032f578384fd5b84516001600160401b038082111562000346578586fd5b620003548883890162000266565b955060208701519150808211156200036a578485fd5b50620003798782880162000266565b9350506200038a6040860162000249565b91506200039a6060860162000249565b905092959194509250565b600281046001821680620003ba57607f821691505b60208210811415620003dc57634e487b7160e01b600052602260045260246000fd5b50919050565b634e487b7160e01b600052604160045260246000fd5b61248680620004086000396000f3fe608060405234801561001057600080fd5b50600436106101a95760003560e01c80636352211e116100f9578063b88d4fde11610097578063d547741f11610071578063d547741f146103a1578063e985e9c5146103b4578063eca81d42146103f0578063f2c4da9314610403576101a9565b8063b88d4fde14610354578063c87b56dd14610367578063d53913931461037a576101a9565b806395d89b41116100d357806395d89b411461031e578063a217fddf14610326578063a22cb4651461032e578063ab988da214610341576101a9565b80636352211e146102e557806370a08231146102f857806391d148541461030b576101a9565b8063248a9ca31161016657806336568abe1161014057806336568abe1461029957806342842e0e146102ac57806342966c68146102bf5780634f6ccce7146102d2576101a9565b8063248a9ca3146102505780632f2ff15d146102735780632f745c5914610286576101a9565b806301ffc9a7146101ae57806306fdde03146101d6578063081812fc146101eb578063095ea7b31461021657806318160ddd1461022b57806323b872dd1461023d575b600080fd5b6101c16101bc366004612106565b610416565b60405190151581526020015b60405180910390f35b6101de610429565b6040516101cd919061224b565b6101fe6101f93660046120cc565b6104bb565b6040516001600160a01b0390911681526020016101cd565b6102296102243660046120a3565b6104e2565b005b6008545b6040519081526020016101cd565b61022961024b366004611f44565b6105fd565b61022f61025e3660046120cc565b6000908152600b602052604090206001015490565b6102296102813660046120e4565b61062f565b61022f6102943660046120a3565b610654565b6102296102a73660046120e4565b6106ea565b6102296102ba366004611f44565b610768565b6102296102cd3660046120cc565b610783565b61022f6102e03660046120cc565b6107b4565b6101fe6102f33660046120cc565b610855565b61022f610306366004611ef8565b6108b5565b6101c16103193660046120e4565b61093b565b6101de610966565b61022f600081565b61022961033c366004611ff8565b610975565b6101de61034f3660046120cc565b610980565b610229610362366004611f7f565b610a1a565b6101de6103753660046120cc565b610a52565b61022f7f9f2df0fed2c77648de5860a4cc508cd0818c85b8b8a1ab4ceeef8d981c8956a681565b6102296103af3660046120e4565b610a5d565b6101c16103c2366004611f12565b6001600160a01b03918216600090815260056020908152604080832093909416825291909152205460ff1690565b6102296103fe366004612032565b610a82565b600c546101fe906001600160a01b031681565b600061042182610b0b565b90505b919050565b606060008054610438906123d3565b80601f0160208091040260200160405190810160405280929190818152602001828054610464906123d3565b80156104b15780601f10610486576101008083540402835291602001916104b1565b820191906000526020600020905b81548152906001019060200180831161049457829003601f168201915b5050505050905090565b60006104c682610b30565b506000908152600460205260409020546001600160a01b031690565b60006104ed82610855565b9050806001600160a01b0316836001600160a01b031614156105605760405162461bcd60e51b815260206004820152602160248201527f4552433732313a20617070726f76616c20746f2063757272656e74206f776e656044820152603960f91b60648201526084015b60405180910390fd5b336001600160a01b038216148061057c575061057c81336103c2565b6105ee5760405162461bcd60e51b815260206004820152603d60248201527f4552433732313a20617070726f76652063616c6c6572206973206e6f7420746f60448201527f6b656e206f776e6572206f7220617070726f76656420666f7220616c6c0000006064820152608401610557565b6105f88383610b8f565b505050565b610608335b82610bfd565b6106245760405162461bcd60e51b81526004016105579061225e565b6105f8838383610c7c565b6000828152600b602052604090206001015461064a81610ded565b6105f88383610df7565b600061065f836108b5565b82106106c15760405162461bcd60e51b815260206004820152602b60248201527f455243373231456e756d657261626c653a206f776e657220696e646578206f7560448201526a74206f6620626f756e647360a81b6064820152608401610557565b506001600160a01b03919091166000908152600660209081526040808320938352929052205490565b6001600160a01b038116331461075a5760405162461bcd60e51b815260206004820152602f60248201527f416363657373436f6e74726f6c3a2063616e206f6e6c792072656e6f756e636560448201526e103937b632b9903337b91039b2b63360891b6064820152608401610557565b6107648282610e7d565b5050565b6105f883838360405180602001604052806000815250610a1a565b61078c33610602565b6107a85760405162461bcd60e51b81526004016105579061225e565b6107b181610ee4565b50565b60006107bf60085490565b82106108225760405162461bcd60e51b815260206004820152602c60248201527f455243373231456e756d657261626c653a20676c6f62616c20696e646578206f60448201526b7574206f6620626f756e647360a01b6064820152608401610557565b6008828154811061084357634e487b7160e01b600052603260045260246000fd5b90600052602060002001549050919050565b6000818152600260205260408120546001600160a01b0316806104215760405162461bcd60e51b8152602060048201526018602482015277115490cdcc8c4e881a5b9d985b1a59081d1bdad95b88125160421b6044820152606401610557565b60006001600160a01b03821661091f5760405162461bcd60e51b815260206004820152602960248201527f4552433732313a2061646472657373207a65726f206973206e6f7420612076616044820152683634b21037bbb732b960b91b6064820152608401610557565b506001600160a01b031660009081526003602052604090205490565b6000918252600b602090815260408084206001600160a01b0393909316845291905290205460ff1690565b606060018054610438906123d3565b610764338383610eed565b600e6020526000908152604090208054610999906123d3565b80601f01602080910402602001604051908101604052809291908181526020018280546109c5906123d3565b8015610a125780601f106109e757610100808354040283529160200191610a12565b820191906000526020600020905b8154815290600101906020018083116109f557829003601f168201915b505050505081565b610a243383610bfd565b610a405760405162461bcd60e51b81526004016105579061225e565b610a4c84848484610fbc565b50505050565b606061042182610fef565b6000828152600b6020526040902060010154610a7881610ded565b6105f88383610e7d565b7f9f2df0fed2c77648de5860a4cc508cd0818c85b8b8a1ab4ceeef8d981c8956a6610aac81610ded565b6000610ab7600d5490565b9050610ac7600d80546001019055565b610ad185826110f9565b610adb8185611113565b6000818152600e602090815260409091208451610afa92860190611d7b565b505050505050565b80546001019055565b60006001600160e01b03198216637965db0b60e01b14806104215750610421826111e5565b6000818152600260205260409020546001600160a01b03166107b15760405162461bcd60e51b8152602060048201526018602482015277115490cdcc8c4e881a5b9d985b1a59081d1bdad95b88125160421b6044820152606401610557565b600081815260046020526040902080546001600160a01b0319166001600160a01b0384169081179091558190610bc482610855565b6001600160a01b03167f8c5be1e5ebec7d5bd14f71427d1e84f3dd0314c0f7b2291e5b200ac8c7c3b92560405160405180910390a45050565b600080610c0983610855565b9050806001600160a01b0316846001600160a01b03161480610c5057506001600160a01b0380821660009081526005602090815260408083209388168352929052205460ff165b80610c745750836001600160a01b0316610c69846104bb565b6001600160a01b0316145b949350505050565b826001600160a01b0316610c8f82610855565b6001600160a01b031614610cb55760405162461bcd60e51b8152600401610557906122fd565b6001600160a01b038216610d175760405162461bcd60e51b8152602060048201526024808201527f4552433732313a207472616e7366657220746f20746865207a65726f206164646044820152637265737360e01b6064820152608401610557565b610d24838383600161120a565b826001600160a01b0316610d3782610855565b6001600160a01b031614610d5d5760405162461bcd60e51b8152600401610557906122fd565b600081815260046020908152604080832080546001600160a01b03199081169091556001600160a01b0387811680865260038552838620805460001901905590871680865283862080546001019055868652600290945282852080549092168417909155905184937fddf252ad1be2c89b69c2b068fc378daa952ba7f163c4a11628f55a4df523b3ef91a46105f8565b6107b18133611216565b610e01828261093b565b610764576000828152600b602090815260408083206001600160a01b03851684529091529020805460ff19166001179055610e393390565b6001600160a01b0316816001600160a01b0316837f2f8788117e7eff1d82e926ec794901d17c78024a50270940304540a733656f0d60405160405180910390a45050565b610e87828261093b565b15610764576000828152600b602090815260408083206001600160a01b0385168085529252808320805460ff1916905551339285917ff6391f5c32d9c69d2a47ea670b442974b53935d1edc7fd64eb21e047a839171b9190a45050565b6107b18161126f565b816001600160a01b0316836001600160a01b03161415610f4f5760405162461bcd60e51b815260206004820152601960248201527f4552433732313a20617070726f766520746f2063616c6c6572000000000000006044820152606401610557565b6001600160a01b03838116600081815260056020908152604080832094871680845294825291829020805460ff191686151590811790915591519182527f17307eab39ab6107e8899845ad3d59bd9653f200f220920489ca2b5937696c31910160405180910390a3505050565b610fc7848484610c7c565b610fd3848484846112af565b610a4c5760405162461bcd60e51b8152600401610557906122ab565b6060610ffa82610b30565b6000828152600a602052604081208054611013906123d3565b80601f016020809104026020016040519081016040528092919081815260200182805461103f906123d3565b801561108c5780601f106110615761010080835404028352916020019161108c565b820191906000526020600020905b81548152906001019060200180831161106f57829003601f168201915b5050505050905060006110aa60408051602081019091526000815290565b90508051600014156110be57509050610424565b8151156110f05780826040516020016110d892919061216a565b60405160208183030381529060405292505050610424565b610c74846113bc565b610764828260405180602001604052806000815250611430565b6000828152600260205260409020546001600160a01b031661118e5760405162461bcd60e51b815260206004820152602e60248201527f45524337323155524953746f726167653a2055524920736574206f66206e6f6e60448201526d32bc34b9ba32b73a103a37b5b2b760911b6064820152608401610557565b6000828152600a6020908152604090912082516111ad92840190611d7b565b506040518281527ff8e1a15aba9398e019f0b49df1a4fde98ee17ae345cb5f6b5e2c27f5033e8ce79060200160405180910390a15050565b60006001600160e01b03198216632483248360e11b1480610421575061042182611463565b610a4c84848484611488565b611220828261093b565b6107645761122d816115bc565b6112388360206115ce565b604051602001611249929190612199565b60408051601f198184030181529082905262461bcd60e51b82526105579160040161224b565b611278816117b0565b6000818152600a602052604090208054611291906123d3565b1590506107b1576000818152600a602052604081206107b191611dff565b60006001600160a01b0384163b156113b157604051630a85bd0160e11b81526001600160a01b0385169063150b7a02906112f390339089908890889060040161220e565b602060405180830381600087803b15801561130d57600080fd5b505af192505050801561133d575060408051601f3d908101601f1916820190925261133a91810190612122565b60015b611397573d80801561136b576040519150601f19603f3d011682016040523d82523d6000602084013e611370565b606091505b50805161138f5760405162461bcd60e51b8152600401610557906122ab565b805181602001fd5b6001600160e01b031916630a85bd0160e11b149050610c74565b506001949350505050565b60606113c782610b30565b60006113de60408051602081019091526000815290565b905060008151116113fe5760405180602001604052806000815250611429565b8061140884611854565b60405160200161141992919061216a565b6040516020818303038152906040525b9392505050565b61143a83836118ff565b61144760008484846112af565b6105f85760405162461bcd60e51b8152600401610557906122ab565b60006001600160e01b0319821663780e9d6360e01b1480610421575061042182611a99565b60018111156114f75760405162461bcd60e51b815260206004820152603560248201527f455243373231456e756d657261626c653a20636f6e7365637574697665207472604482015274185b9cd9995c9cc81b9bdd081cdd5c1c1bdc9d1959605a1b6064820152608401610557565b816001600160a01b0385166115535761154e81600880546000838152600960205260408120829055600182018355919091527ff3f7a9fe364faab93b216da50a3214154f22a0a2b415b23a84c8169e8b636ee30155565b611576565b836001600160a01b0316856001600160a01b031614611576576115768582611ae9565b6001600160a01b0384166115925761158d81611b86565b6115b5565b846001600160a01b0316846001600160a01b0316146115b5576115b58482611c5f565b5050505050565b60606104216001600160a01b03831660145b606060006115dd83600261235a565b6115e8906002612342565b67ffffffffffffffff81111561160e57634e487b7160e01b600052604160045260246000fd5b6040519080825280601f01601f191660200182016040528015611638576020820181803683370190505b509050600360fc1b8160008151811061166157634e487b7160e01b600052603260045260246000fd5b60200101906001600160f81b031916908160001a905350600f60fb1b8160018151811061169e57634e487b7160e01b600052603260045260246000fd5b60200101906001600160f81b031916908160001a90535060006116c284600261235a565b6116cd906001612342565b90505b6001811115611761576f181899199a1a9b1b9c1cb0b131b232b360811b85600f166010811061170f57634e487b7160e01b600052603260045260246000fd5b1a60f81b82828151811061173357634e487b7160e01b600052603260045260246000fd5b60200101906001600160f81b031916908160001a90535060049490941c9361175a816123bc565b90506116d0565b5083156114295760405162461bcd60e51b815260206004820181905260248201527f537472696e67733a20686578206c656e67746820696e73756666696369656e746044820152606401610557565b60006117bb82610855565b90506117cb81600084600161120a565b6117d482610855565b600083815260046020908152604080832080546001600160a01b03199081169091556001600160a01b0385168085526003845282852080546000190190558785526002909352818420805490911690555192935084927fddf252ad1be2c89b69c2b068fc378daa952ba7f163c4a11628f55a4df523b3ef908390a4610764565b6060600061186183611ca3565b600101905060008167ffffffffffffffff81111561188f57634e487b7160e01b600052604160045260246000fd5b6040519080825280601f01601f1916602001820160405280156118b9576020820181803683370190505b5090508181016020015b600019016f181899199a1a9b1b9c1cb0b131b232b360811b600a86061a8153600a85049450846118f2576118f7565b6118c3565b509392505050565b6001600160a01b0382166119555760405162461bcd60e51b815260206004820181905260248201527f4552433732313a206d696e7420746f20746865207a65726f20616464726573736044820152606401610557565b6000818152600260205260409020546001600160a01b0316156119ba5760405162461bcd60e51b815260206004820152601c60248201527f4552433732313a20746f6b656e20616c7265616479206d696e746564000000006044820152606401610557565b6119c860008383600161120a565b6000818152600260205260409020546001600160a01b031615611a2d5760405162461bcd60e51b815260206004820152601c60248201527f4552433732313a20746f6b656e20616c7265616479206d696e746564000000006044820152606401610557565b6001600160a01b038216600081815260036020908152604080832080546001019055848352600290915280822080546001600160a01b0319168417905551839291907fddf252ad1be2c89b69c2b068fc378daa952ba7f163c4a11628f55a4df523b3ef908290a4610764565b60006001600160e01b031982166380ac58cd60e01b1480611aca57506001600160e01b03198216635b5e139f60e01b145b8061042157506301ffc9a760e01b6001600160e01b0319831614610421565b60006001611af6846108b5565b611b009190612379565b600083815260076020526040902054909150808214611b53576001600160a01b03841660009081526006602090815260408083208584528252808320548484528184208190558352600790915290208190555b5060009182526007602090815260408084208490556001600160a01b039094168352600681528383209183525290812055565b600854600090611b9890600190612379565b60008381526009602052604081205460088054939450909284908110611bce57634e487b7160e01b600052603260045260246000fd5b906000526020600020015490508060088381548110611bfd57634e487b7160e01b600052603260045260246000fd5b6000918252602080832090910192909255828152600990915260408082208490558582528120556008805480611c4357634e487b7160e01b600052603160045260246000fd5b6001900381819060005260206000200160009055905550505050565b6000611c6a836108b5565b6001600160a01b039093166000908152600660209081526040808320868452825280832085905593825260079052919091209190915550565b60008072184f03e93ff9f4daa797ed6e38ed64bf6a1f0160401b8310611ce25772184f03e93ff9f4daa797ed6e38ed64bf6a1f0160401b830492506040015b6d04ee2d6d415b85acef81000000008310611d0e576d04ee2d6d415b85acef8100000000830492506020015b662386f26fc100008310611d2c57662386f26fc10000830492506010015b6305f5e1008310611d44576305f5e100830492506008015b6127108310611d5857612710830492506004015b60648310611d6a576064830492506002015b600a83106104215760010192915050565b828054611d87906123d3565b90600052602060002090601f016020900481019282611da95760008555611def565b82601f10611dc257805160ff1916838001178555611def565b82800160010185558215611def579182015b82811115611def578251825591602001919060010190611dd4565b50611dfb929150611e37565b5090565b508054611e0b906123d3565b6000825580601f10611e1d57506107b1565b601f0160209004906000526020600020908101906107b191905b5b80821115611dfb5760008155600101611e38565b600067ffffffffffffffff80841115611e6757611e67612424565b604051601f8501601f19908116603f01168101908282118183101715611e8f57611e8f612424565b81604052809350858152868686011115611ea857600080fd5b858560208301376000602087830101525050509392505050565b80356001600160a01b038116811461042457600080fd5b600082601f830112611ee9578081fd5b61142983833560208501611e4c565b600060208284031215611f09578081fd5b61142982611ec2565b60008060408385031215611f24578081fd5b611f2d83611ec2565b9150611f3b60208401611ec2565b90509250929050565b600080600060608486031215611f58578081fd5b611f6184611ec2565b9250611f6f60208501611ec2565b9150604084013590509250925092565b60008060008060808587031215611f94578081fd5b611f9d85611ec2565b9350611fab60208601611ec2565b925060408501359150606085013567ffffffffffffffff811115611fcd578182fd5b8501601f81018713611fdd578182fd5b611fec87823560208401611e4c565b91505092959194509250565b6000806040838503121561200a578182fd5b61201383611ec2565b915060208301358015158114612027578182fd5b809150509250929050565b600080600060608486031215612046578283fd5b61204f84611ec2565b9250602084013567ffffffffffffffff8082111561206b578384fd5b61207787838801611ed9565b9350604086013591508082111561208c578283fd5b5061209986828701611ed9565b9150509250925092565b600080604083850312156120b5578182fd5b6120be83611ec2565b946020939093013593505050565b6000602082840312156120dd578081fd5b5035919050565b600080604083850312156120f6578182fd5b82359150611f3b60208401611ec2565b600060208284031215612117578081fd5b81356114298161243a565b600060208284031215612133578081fd5b81516114298161243a565b60008151808452612156816020860160208601612390565b601f01601f19169290920160200192915050565b6000835161217c818460208801612390565b835190830190612190818360208801612390565b01949350505050565b60007f416363657373436f6e74726f6c3a206163636f756e7420000000000000000000825283516121d1816017850160208801612390565b7001034b99036b4b9b9b4b733903937b6329607d1b6017918401918201528351612202816028840160208801612390565b01602801949350505050565b6001600160a01b03858116825284166020820152604081018390526080606082018190526000906122419083018461213e565b9695505050505050565b600060208252611429602083018461213e565b6020808252602d908201527f4552433732313a2063616c6c6572206973206e6f7420746f6b656e206f776e6560408201526c1c881bdc88185c1c1c9bdd9959609a1b606082015260800190565b60208082526032908201527f4552433732313a207472616e7366657220746f206e6f6e20455243373231526560408201527131b2b4bb32b91034b6b83632b6b2b73a32b960711b606082015260800190565b60208082526025908201527f4552433732313a207472616e736665722066726f6d20696e636f72726563742060408201526437bbb732b960d91b606082015260800190565b600082198211156123555761235561240e565b500190565b60008160001904831182151516156123745761237461240e565b500290565b60008282101561238b5761238b61240e565b500390565b60005b838110156123ab578181015183820152602001612393565b83811115610a4c5750506000910152565b6000816123cb576123cb61240e565b506000190190565b6002810460018216806123e757607f821691505b6020821081141561240857634e487b7160e01b600052602260045260246000fd5b50919050565b634e487b7160e01b600052601160045260246000fd5b634e487b7160e01b600052604160045260246000fd5b6001600160e01b0319811681146107b157600080fdfea264697066735822122061c5331eef21661f2e3b3f15a314ed42c366adf030d0c75e2c5d974eb8603c7864736f6c634300080200339f2df0fed2c77648de5860a4cc508cd0818c85b8b8a1ab4ceeef8d981c8956a6a2646970667358221220a0b414d8853b65e1176dad074bec5cb5f895edf622d78b3375b403168190f01564736f6c63430008020033",
  "devdoc": {
    "details": "Naming this factory contract as DocumentStoreCreator so that typechain can name the factory of this contract as DocumentStoreCreatorFactory and it does not collide with the automatically generated DocumentStoreFactory automatically generated by typechain",
    "events": {
      "DocumentCertNFTDeployed(address,address)": {
        "params": {
          "creator": "The address of the creator of the new DocumentCertNFT instance",
          "instance": "The address of the newly deployed DocumentCertNFT instance"
        }
      },
      "DocumentStoreDeployed(address,address)": {
        "params": {
          "creator": "The address of the creator of the new DocumentStore instance",
          "instance": "The address of the newly deployed DocumentStore instance"
        }
      }
    },
    "kind": "dev",
    "methods": {
      "deploy(string,string,string,string)": {
        "params": {
          "domainName": "The domain name of the new DocumentStore instance",
          "name": "The name of the new DocumentStore instance",
          "nftName": "The name of the new NFT instance",
          "nftSymbol": "The symbol of the new NFT instance"
        },
        "returns": {
          "_0": "The address of the newly deployed DocumentStore instance"
        }
      }
    },
    "title": "DocumentStoreCreator",
    "version": 1
  },
  "userdoc": {
    "events": {
      "DocumentCertNFTDeployed(address,address)": {
        "notice": "Emitted when a new DocumentCertNFT instance is deployed"
      },
      "DocumentStoreDeployed(address,address)": {
        "notice": "Emitted when a new DocumentStore instance is deployed"
      }
    },
    "kind": "user",
    "methods": {
      "deploy(string,string,string,string)": {
        "notice": "Deploys a new DocumentStore instance with the given name"
      }
    },
    "version": 1
  },
  "storageLayout": {
    "storage": [],
    "types": null
  }
}