{
  "address": "0x9E96b9AF28c105B149dbfD64A51b6Dc8a57C9C63",
  "abi": [
    {
      "inputs": [
        {
          "internalType": "string",
          "name": "_name",
          "type": "string"
        },
        {
          "internalType": "address",
          "name": "owner",
          "type": "address"
        },
        {
          "internalType": "string",
          "name": "_domainName",
          "type": "string"
        }
      ],
      "stateMutability": "nonpayable",
      "type": "constructor"
    },
    {
      "anonymous": false,
      "inputs": [
        {
          "indexed": true,
          "internalType": "bytes32",
          "name": "document",
          "type": "bytes32"
        }
      ],
      "name": "DocumentIssued",
      "type": "event"
    },
    {
      "anonymous": false,
      "inputs": [
        {
          "indexed": true,
          "internalType": "bytes32",
          "name": "document",
          "type": "bytes32"
        }
      ],
      "name": "DocumentRevoked",
      "type": "event"
    },
    {
      "anonymous": false,
      "inputs": [
        {
          "indexed": false,
          "internalType": "uint8",
          "name": "version",
          "type": "uint8"
        }
      ],
      "name": "Initialized",
      "type": "event"
    },
    {
      "anonymous": false,
      "inputs": [
        {
          "indexed": true,
          "internalType": "bytes32",
          "name": "role",
          "type": "bytes32"
        },
        {
          "indexed": true,
          "internalType": "bytes32",
          "name": "previousAdminRole",
          "type": "bytes32"
        },
        {
          "indexed": true,
          "internalType": "bytes32",
          "name": "newAdminRole",
          "type": "bytes32"
        }
      ],
      "name": "RoleAdminChanged",
      "type": "event"
    },
    {
      "anonymous": false,
      "inputs": [
        {
          "indexed": true,
          "internalType": "bytes32",
          "name": "role",
          "type": "bytes32"
        },
        {
          "indexed": true,
          "internalType": "address",
          "name": "account",
          "type": "address"
        },
        {
          "indexed": true,
          "internalType": "address",
          "name": "sender",
          "type": "address"
        }
      ],
      "name": "RoleGranted",
      "type": "event"
    },
    {
      "anonymous": false,
      "inputs": [
        {
          "indexed": true,
          "internalType": "bytes32",
          "name": "role",
          "type": "bytes32"
        },
        {
          "indexed": true,
          "internalType": "address",
          "name": "account",
          "type": "address"
        },
        {
          "indexed": true,
          "internalType": "address",
          "name": "sender",
          "type": "address"
        }
      ],
      "name": "RoleRevoked",
      "type": "event"
    },
    {
      "inputs": [],
      "name": "DEFAULT_ADMIN_ROLE",
      "outputs": [
        {
          "internalType": "bytes32",
          "name": "",
          "type": "bytes32"
        }
      ],
      "stateMutability": "view",
      "type": "function"
    },
    {
      "inputs": [],
      "name": "ISSUER_ROLE",
      "outputs": [
        {
          "internalType": "bytes32",
          "name": "",
          "type": "bytes32"
        }
      ],
      "stateMutability": "view",
      "type": "function"
    },
    {
      "inputs": [],
      "name": "REVOKER_ROLE",
      "outputs": [
        {
          "internalType": "bytes32",
          "name": "",
          "type": "bytes32"
        }
      ],
      "stateMutability": "view",
      "type": "function"
    },
    {
      "inputs": [
        {
          "internalType": "bytes32[]",
          "name": "documents",
          "type": "bytes32[]"
        }
      ],
      "name": "bulkIssue",
      "outputs": [],
      "stateMutability": "nonpayable",
      "type": "function"
    },
    {
      "inputs": [
        {
          "internalType": "bytes32[]",
          "name": "documents",
          "type": "bytes32[]"
        }
      ],
      "name": "bulkRevoke",
      "outputs": [],
      "stateMutability": "nonpayable",
      "type": "function"
    },
    {
      "inputs": [],
      "name": "certAddress",
      "outputs": [
        {
          "internalType": "address",
          "name": "",
          "type": "address"
        }
      ],
      "stateMutability": "view",
      "type": "function"
    },
    {
      "inputs": [
        {
          "internalType": "bytes32",
          "name": "",
          "type": "bytes32"
        }
      ],
      "name": "documentIssued",
      "outputs": [
        {
          "internalType": "uint256",
          "name": "",
          "type": "uint256"
        }
      ],
      "stateMutability": "view",
      "type": "function"
    },
    {
      "inputs": [
        {
          "internalType": "bytes32",
          "name": "",
          "type": "bytes32"
        }
      ],
      "name": "documentRevoked",
      "outputs": [
        {
          "internalType": "uint256",
          "name": "",
          "type": "uint256"
        }
      ],
      "stateMutability": "view",
      "type": "function"
    },
    {
      "inputs": [],
      "name": "domainName",
      "outputs": [
        {
          "internalType": "string",
          "name": "",
          "type": "string"
        }
      ],
      "stateMutability": "view",
      "type": "function"
    },
    {
      "inputs": [
        {
          "internalType": "bytes32",
          "name": "document",
          "type": "bytes32"
        }
      ],
      "name": "getIssuedBlock",
      "outputs": [
        {
          "internalType": "uint256",
          "name": "",
          "type": "uint256"
        }
      ],
      "stateMutability": "view",
      "type": "function"
    },
    {
      "inputs": [
        {
          "internalType": "bytes32",
          "name": "role",
          "type": "bytes32"
        }
      ],
      "name": "getRoleAdmin",
      "outputs": [
        {
          "internalType": "bytes32",
          "name": "",
          "type": "bytes32"
        }
      ],
      "stateMutability": "view",
      "type": "function"
    },
    {
      "inputs": [
        {
          "internalType": "bytes32",
          "name": "role",
          "type": "bytes32"
        },
        {
          "internalType": "address",
          "name": "account",
          "type": "address"
        }
      ],
      "name": "grantRole",
      "outputs": [],
      "stateMutability": "nonpayable",
      "type": "function"
    },
    {
      "inputs": [
        {
          "internalType": "bytes32",
          "name": "role",
          "type": "bytes32"
        },
        {
          "internalType": "address",
          "name": "account",
          "type": "address"
        }
      ],
      "name": "hasRole",
      "outputs": [
        {
          "internalType": "bool",
          "name": "",
          "type": "bool"
        }
      ],
      "stateMutability": "view",
      "type": "function"
    },
    {
      "inputs": [
        {
          "internalType": "bytes32",
          "name": "document",
          "type": "bytes32"
        }
      ],
      "name": "isIssued",
      "outputs": [
        {
          "internalType": "bool",
          "name": "",
          "type": "bool"
        }
      ],
      "stateMutability": "view",
      "type": "function"
    },
    {
      "inputs": [
        {
          "internalType": "bytes32",
          "name": "document",
          "type": "bytes32"
        },
        {
          "internalType": "uint256",
          "name": "blockNumber",
          "type": "uint256"
        }
      ],
      "name": "isIssuedBefore",
      "outputs": [
        {
          "internalType": "bool",
          "name": "",
          "type": "bool"
        }
      ],
      "stateMutability": "view",
      "type": "function"
    },
    {
      "inputs": [
        {
          "internalType": "bytes32",
          "name": "document",
          "type": "bytes32"
        }
      ],
      "name": "isRevoked",
      "outputs": [
        {
          "internalType": "bool",
          "name": "",
          "type": "bool"
        }
      ],
      "stateMutability": "view",
      "type": "function"
    },
    {
      "inputs": [
        {
          "internalType": "bytes32",
          "name": "document",
          "type": "bytes32"
        },
        {
          "internalType": "uint256",
          "name": "blockNumber",
          "type": "uint256"
        }
      ],
      "name": "isRevokedBefore",
      "outputs": [
        {
          "internalType": "bool",
          "name": "",
          "type": "bool"
        }
      ],
      "stateMutability": "view",
      "type": "function"
    },
    {
      "inputs": [
        {
          "internalType": "bytes32",
          "name": "document",
          "type": "bytes32"
        }
      ],
      "name": "issue",
      "outputs": [],
      "stateMutability": "nonpayable",
      "type": "function"
    },
    {
      "inputs": [],
      "name": "name",
      "outputs": [
        {
          "internalType": "string",
          "name": "",
          "type": "string"
        }
      ],
      "stateMutability": "view",
      "type": "function"
    },
    {
      "inputs": [
        {
          "internalType": "bytes32",
          "name": "role",
          "type": "bytes32"
        },
        {
          "internalType": "address",
          "name": "account",
          "type": "address"
        }
      ],
      "name": "renounceRole",
      "outputs": [],
      "stateMutability": "nonpayable",
      "type": "function"
    },
    {
      "inputs": [
        {
          "internalType": "bytes32",
          "name": "document",
          "type": "bytes32"
        }
      ],
      "name": "revoke",
      "outputs": [
        {
          "internalType": "bool",
          "name": "",
          "type": "bool"
        }
      ],
      "stateMutability": "nonpayable",
      "type": "function"
    },
    {
      "inputs": [
        {
          "internalType": "bytes32",
          "name": "role",
          "type": "bytes32"
        },
        {
          "internalType": "address",
          "name": "account",
          "type": "address"
        }
      ],
      "name": "revokeRole",
      "outputs": [],
      "stateMutability": "nonpayable",
      "type": "function"
    },
    {
      "inputs": [
        {
          "internalType": "address",
          "name": "_certAddress",
          "type": "address"
        }
      ],
      "name": "setCertAddress",
      "outputs": [],
      "stateMutability": "nonpayable",
      "type": "function"
    },
    {
      "inputs": [
        {
          "internalType": "string",
          "name": "newDomainName",
          "type": "string"
        }
      ],
      "name": "setDomainName",
      "outputs": [],
      "stateMutability": "nonpayable",
      "type": "function"
    },
    {
      "inputs": [
        {
          "internalType": "bytes4",
          "name": "interfaceId",
          "type": "bytes4"
        }
      ],
      "name": "supportsInterface",
      "outputs": [
        {
          "internalType": "bool",
          "name": "",
          "type": "bool"
        }
      ],
      "stateMutability": "view",
      "type": "function"
    },
    {
      "inputs": [],
      "name": "version",
      "outputs": [
        {
          "internalType": "string",
          "name": "",
          "type": "string"
        }
      ],
      "stateMutability": "view",
      "type": "function"
    }
  ],
  "transactionHash": "0xb4dcd7a48dc1caecc30514f04cde05ab0d094eec3d28f9c6da282d3cd24b0605",
  "args": [
    "BlockCert",
    "0x134D981983F0094A29f7240D5405e6d1D05c6811",
    "blockcert.io"
  ],
  "numDeployments": 1,
  "solcInputHash": "60fe377db97157309dd8ff7e225ca65b",
  "bytecode": "0x60806040523480156200001157600080fd5b50604051620018dc380380620018dc833981016040819052620000349162000571565b6200004083836200005f565b80516200005590609c90602084019062000418565b505050506200064b565b600054610100900460ff1615808015620000805750600054600160ff909116105b80620000b057506200009d306200019f60201b6200085e1760201c565b158015620000b0575060005460ff166001145b620001195760405162461bcd60e51b815260206004820152602e60248201527f496e697469616c697a61626c653a20636f6e747261637420697320616c72656160448201526d191e481a5b9a5d1a585b1a5e995960921b60648201526084015b60405180910390fd5b6000805460ff1916600117905580156200013d576000805461ff0019166101001790555b6200014882620001ae565b6200015383620002c7565b80156200019a576000805461ff0019169055604051600181527f7f26b83ff96e1f2b6a682f133852f6798a09c465da95921460cefb38474024989060200160405180910390a15b505050565b6001600160a01b03163b151590565b600054610100900460ff166200020a5760405162461bcd60e51b815260206004820152602b6024820152600080516020620018bc83398151915260448201526a6e697469616c697a696e6760a81b606482015260840162000110565b6001600160a01b038116620002525760405162461bcd60e51b815260206004820152600d60248201526c4f776e6572206973207a65726f60981b604482015260640162000110565b6200025f6000336200036b565b6200026c6000826200036b565b620002987f114e74f6ea3bd819998f78687bfcb11b140da08e9b7d222fa9c1f1ba1f2aa122826200036b565b620002c47fce3f34913921da558f105cefb578d87278debbbd073a8d552b5de0d168deee30826200036b565b50565b600054610100900460ff16620003235760405162461bcd60e51b815260206004820152602b6024820152600080516020620018bc83398151915260448201526a6e697469616c697a696e6760a81b606482015260840162000110565b604080518082019091526005808252640322e332e360dc1b6020909201918252620003519160029162000418565b5080516200036790600190602084019062000418565b5050565b60008281526069602090815260408083206001600160a01b038516845290915290205462000367908390839060ff16620003675760008281526069602090815260408083206001600160a01b03851684529091529020805460ff19166001179055620003d43390565b6001600160a01b0316816001600160a01b0316837f2f8788117e7eff1d82e926ec794901d17c78024a50270940304540a733656f0d60405160405180910390a45050565b8280546200042690620005f8565b90600052602060002090601f0160209004810192826200044a576000855562000495565b82601f106200046557805160ff191683800117855562000495565b8280016001018555821562000495579182015b828111156200049557825182559160200191906001019062000478565b50620004a3929150620004a7565b5090565b5b80821115620004a35760008155600101620004a8565b600082601f830112620004cf578081fd5b81516001600160401b0380821115620004ec57620004ec62000635565b604051601f8301601f19908116603f0116810190828211818310171562000517576200051762000635565b8160405283815260209250868385880101111562000533578485fd5b8491505b8382101562000556578582018301518183018401529082019062000537565b838211156200056757848385830101525b9695505050505050565b60008060006060848603121562000586578283fd5b83516001600160401b03808211156200059d578485fd5b620005ab87838801620004be565b602087015190955091506001600160a01b0382168214620005ca578384fd5b604086015191935080821115620005df578283fd5b50620005ee86828701620004be565b9150509250925092565b6002810460018216806200060d57607f821691505b602082108114156200062f57634e487b7160e01b600052602260045260246000fd5b50919050565b634e487b7160e01b600052604160045260246000fd5b611261806200065b6000396000f3fe608060405234801561001057600080fd5b506004361061018e5760003560e01c80635a9e03ca116100de5780638bc36c9111610097578063b75c7dc611610071578063b75c7dc6146103ab578063bf40b904146103be578063d547741f146103d1578063d702076e146103e45761018e565b80638bc36c911461037057806391d1485414610390578063a217fddf146103a35761018e565b80635a9e03ca146102e15780637c4acabf146102f45780637df208261461031b57806382aefa241461032e5780638542df5c14610355578063895d7386146103685761018e565b806333358d2d1161014b5780634294857f116101255780634294857f146102915780634ada8076146102b3578063542e1c93146102c657806354fd4d50146102d95761018e565b806333358d2d1461024b578063339b6b391461026b57806336568abe1461027e5761018e565b806301ffc9a71461019357806306fdde03146101bb5780630f75e81f146101d0578063163aa631146101e5578063248a9ca3146102075780632f2ff15d14610238575b600080fd5b6101a66101a1366004610eff565b61040f565b60405190151581526020015b60405180910390f35b6101c3610448565b6040516101b29190611029565b6101e36101de366004610e9b565b6104d6565b005b6101a66101f3366004610e9b565b600090815260036020526040902054151590565b61022a610215366004610e9b565b60009081526069602052604090206001015490565b6040519081526020016101b2565b6101e3610246366004610eb3565b610545565b61022a610259366004610e9b565b60036020526000908152604090205481565b6101a6610279366004610ede565b61056a565b6101e361028c366004610eb3565b61059c565b6101a661029f366004610e9b565b600090815260046020526040902054151590565b6101e36102c1366004610df4565b61061a565b6101e36102d4366004610f27565b61064d565b6101c361066b565b6101a66102ef366004610ede565b610678565b61022a7fce3f34913921da558f105cefb578d87278debbbd073a8d552b5de0d168deee3081565b6101e3610329366004610df4565b6106a6565b61022a7f114e74f6ea3bd819998f78687bfcb11b140da08e9b7d222fa9c1f1ba1f2aa12281565b6101e3610363366004610dda565b6106d9565b6101c3610707565b61022a61037e366004610e9b565b60046020526000908152604090205481565b6101a661039e366004610eb3565b610714565b61022a600081565b6101a66103b9366004610e9b565b61073f565b61022a6103cc366004610e9b565b6107aa565b6101e36103df366004610eb3565b610839565b609b546103f7906001600160a01b031681565b6040516001600160a01b0390911681526020016101b2565b60006001600160e01b03198216637965db0b60e01b148061044057506301ffc9a760e01b6001600160e01b03198316145b90505b919050565b60018054610455906111af565b80601f0160208091040260200160405190810160405280929190818152602001828054610481906111af565b80156104ce5780601f106104a3576101008083540402835291602001916104ce565b820191906000526020600020905b8154815290600101906020018083116104b157829003601f168201915b505050505081565b7f114e74f6ea3bd819998f78687bfcb11b140da08e9b7d222fa9c1f1ba1f2aa1226105008161086d565b6000828152600360205260409020548290156105375760405162461bcd60e51b815260040161052e906110a3565b60405180910390fd5b6105408361087a565b505050565b6000828152606960205260409020600101546105608161086d565b61054083836108e4565b6000828152600460205260408120548210801590610595575060008381526004602052604090205415155b9392505050565b6001600160a01b038116331461060c5760405162461bcd60e51b815260206004820152602f60248201527f416363657373436f6e74726f6c3a2063616e206f6e6c792072656e6f756e636560448201526e103937b632b9903337b91039b2b63360891b606482015260840161052e565b610616828261096a565b5050565b7fce3f34913921da558f105cefb578d87278debbbd073a8d552b5de0d168deee306106448161086d565b610616826109d1565b60006106588161086d565b815161054090609c906020850190610d2a565b60028054610455906111af565b6000828152600360205260408120541580159061059557505060009182526003602052604090912054111590565b7f114e74f6ea3bd819998f78687bfcb11b140da08e9b7d222fa9c1f1ba1f2aa1226106d08161086d565b61061682610a20565b60006106e48161086d565b50609b80546001600160a01b0319166001600160a01b0392909216919091179055565b609c8054610455906111af565b60009182526069602090815260408084206001600160a01b0393909316845291905290205460ff1690565b60007fce3f34913921da558f105cefb578d87278debbbd073a8d552b5de0d168deee3061076b8161086d565b6000838152600460205260409020548390156107995760405162461bcd60e51b815260040161052e9061105c565b6107a284610a6e565b949350505050565b60008181526003602052604081205482906108215760405162461bcd60e51b815260206004820152603160248201527f4572726f723a204f6e6c792069737375656420646f63756d656e742068617368604482015270195cc818d85b881899481c995d9bdad959607a1b606482015260840161052e565b60008381526003602052604090205491505b50919050565b6000828152606960205260409020600101546108548161086d565b610540838361096a565b6001600160a01b03163b151590565b6108778133610add565b50565b6000818152600360205260409020548190156108a85760405162461bcd60e51b815260040161052e906110a3565b6000828152600360205260408082204390555183917f01a1249f2caa0445b8391e02413d26f0d409dabe5330cd1d04d3d0801fc42db391a25050565b6108ee8282610714565b6106165760008281526069602090815260408083206001600160a01b03851684529091529020805460ff191660011790556109263390565b6001600160a01b0316816001600160a01b0316837f2f8788117e7eff1d82e926ec794901d17c78024a50270940304540a733656f0d60405160405180910390a45050565b6109748282610714565b156106165760008281526069602090815260408083206001600160a01b0385168085529252808320805460ff1916905551339285917ff6391f5c32d9c69d2a47ea670b442974b53935d1edc7fd64eb21e047a839171b9190a45050565b60005b815181101561061657610a0d828281518110610a0057634e487b7160e01b600052603260045260246000fd5b6020026020010151610a6e565b5080610a18816111e4565b9150506109d4565b60005b815181101561061657610a5c828281518110610a4f57634e487b7160e01b600052603260045260246000fd5b602002602001015161087a565b80610a66816111e4565b915050610a23565b600081815260046020526040812054829015610a9c5760405162461bcd60e51b815260040161052e9061105c565b6000838152600460205260408082204390555184917f7283b5ab9758f7fba773279e4fd50ea7b136bd1d8371dcae9c5ce529c55343d791a250600192915050565b610ae78282610714565b61061657610af481610b36565b610aff836020610b48565b604051602001610b10929190610fb4565b60408051601f198184030181529082905262461bcd60e51b825261052e91600401611029565b60606104406001600160a01b03831660145b60606000610b57836002611149565b610b62906002611131565b67ffffffffffffffff811115610b8857634e487b7160e01b600052604160045260246000fd5b6040519080825280601f01601f191660200182016040528015610bb2576020820181803683370190505b509050600360fc1b81600081518110610bdb57634e487b7160e01b600052603260045260246000fd5b60200101906001600160f81b031916908160001a905350600f60fb1b81600181518110610c1857634e487b7160e01b600052603260045260246000fd5b60200101906001600160f81b031916908160001a9053506000610c3c846002611149565b610c47906001611131565b90505b6001811115610cdb576f181899199a1a9b1b9c1cb0b131b232b360811b85600f1660108110610c8957634e487b7160e01b600052603260045260246000fd5b1a60f81b828281518110610cad57634e487b7160e01b600052603260045260246000fd5b60200101906001600160f81b031916908160001a90535060049490941c93610cd481611198565b9050610c4a565b5083156105955760405162461bcd60e51b815260206004820181905260248201527f537472696e67733a20686578206c656e67746820696e73756666696369656e74604482015260640161052e565b828054610d36906111af565b90600052602060002090601f016020900481019282610d585760008555610d9e565b82601f10610d7157805160ff1916838001178555610d9e565b82800160010185558215610d9e579182015b82811115610d9e578251825591602001919060010190610d83565b50610daa929150610dae565b5090565b5b80821115610daa5760008155600101610daf565b80356001600160a01b038116811461044357600080fd5b600060208284031215610deb578081fd5b61059582610dc3565b60006020808385031215610e06578182fd5b823567ffffffffffffffff80821115610e1d578384fd5b818501915085601f830112610e30578384fd5b813581811115610e4257610e42611215565b8381029150610e52848301611100565b8181528481019084860184860187018a1015610e6c578788fd5b8795505b83861015610e8e578035835260019590950194918601918601610e70565b5098975050505050505050565b600060208284031215610eac578081fd5b5035919050565b60008060408385031215610ec5578081fd5b82359150610ed560208401610dc3565b90509250929050565b60008060408385031215610ef0578182fd5b50508035926020909101359150565b600060208284031215610f10578081fd5b81356001600160e01b031981168114610595578182fd5b60006020808385031215610f39578182fd5b823567ffffffffffffffff80821115610f50578384fd5b818501915085601f830112610f63578384fd5b813581811115610f7557610f75611215565b610f87601f8201601f19168501611100565b91508082528684828501011115610f9c578485fd5b80848401858401378101909201929092529392505050565b60007f416363657373436f6e74726f6c3a206163636f756e742000000000000000000082528351610fec816017850160208801611168565b7001034b99036b4b9b9b4b733903937b6329607d1b601791840191820152835161101d816028840160208801611168565b01602801949350505050565b6000602082528251806020840152611048816040850160208701611168565b601f01601f19169190910160400192915050565b60208082526027908201527f4572726f723a204861736820686173206265656e207265766f6b65642070726560408201526676696f75736c7960c81b606082015260800190565b6020808252603a908201527f4572726f723a204f6e6c792068617368657320746861742068617665206e6f7460408201527f206265656e206973737565642063616e20626520697373756564000000000000606082015260800190565b604051601f8201601f1916810167ffffffffffffffff8111828210171561112957611129611215565b604052919050565b60008219821115611144576111446111ff565b500190565b6000816000190483118215151615611163576111636111ff565b500290565b60005b8381101561118357818101518382015260200161116b565b83811115611192576000848401525b50505050565b6000816111a7576111a76111ff565b506000190190565b6002810460018216806111c357607f821691505b6020821081141561083357634e487b7160e01b600052602260045260246000fd5b60006000198214156111f8576111f86111ff565b5060010190565b634e487b7160e01b600052601160045260246000fd5b634e487b7160e01b600052604160045260246000fdfea2646970667358221220e262b6ed741652b96794e867781373e0831069b8637d9b9970405bf8f5565f4064736f6c63430008020033496e697469616c697a61626c653a20636f6e7472616374206973206e6f742069",
  "devdoc": {
    "kind": "dev",
    "methods": {
      "bulkIssue(bytes32[])": {
        "params": {
          "documents": "The hashes of the documents to issue"
        }
      },
      "bulkRevoke(bytes32[])": {
        "params": {
          "documents": "The hashes of the documents to revoke"
        }
      },
      "constructor": {
        "params": {
          "_name": "The name of the contract",
          "owner": "The owner of the contract"
        }
      },
      "getIssuedBlock(bytes32)": {
        "params": {
          "document": "The hash of the issued document"
        },
        "returns": {
          "_0": "The block number at which the document was issued"
        }
      },
      "getRoleAdmin(bytes32)": {
        "details": "Returns the admin role that controls `role`. See {grantRole} and {revokeRole}. To change a role's admin, use {_setRoleAdmin}."
      },
      "grantRole(bytes32,address)": {
        "details": "Grants `role` to `account`. If `account` had not been already granted `role`, emits a {RoleGranted} event. Requirements: - the caller must have ``role``'s admin role. May emit a {RoleGranted} event."
      },
      "hasRole(bytes32,address)": {
        "details": "Returns `true` if `account` has been granted `role`."
      },
      "isIssued(bytes32)": {
        "params": {
          "document": "The hash of the document to check"
        },
        "returns": {
          "_0": "A boolean indicating whether the document has been issued"
        }
      },
      "isIssuedBefore(bytes32,uint256)": {
        "params": {
          "blockNumber": "The block number to check against",
          "document": "The hash of the document to check"
        },
        "returns": {
          "_0": "A boolean indicating whether the document was issued before the specified block number"
        }
      },
      "isRevoked(bytes32)": {
        "params": {
          "document": "The hash of the document to check"
        },
        "returns": {
          "_0": "A boolean indicating whether the document has been revoked"
        }
      },
      "isRevokedBefore(bytes32,uint256)": {
        "params": {
          "blockNumber": "The block number to check against",
          "document": "The hash of the document to check"
        },
        "returns": {
          "_0": "A boolean indicating whether the document was revoked before the specified block number"
        }
      },
      "issue(bytes32)": {
        "params": {
          "document": "The hash of the document to issue"
        }
      },
      "renounceRole(bytes32,address)": {
        "details": "Revokes `role` from the calling account. Roles are often managed via {grantRole} and {revokeRole}: this function's purpose is to provide a mechanism for accounts to lose their privileges if they are compromised (such as when a trusted device is misplaced). If the calling account had been revoked `role`, emits a {RoleRevoked} event. Requirements: - the caller must be `account`. May emit a {RoleRevoked} event."
      },
      "revoke(bytes32)": {
        "params": {
          "document": "The hash of the document to revoke"
        },
        "returns": {
          "_0": "A boolean indicating whether the revocation was successful"
        }
      },
      "revokeRole(bytes32,address)": {
        "details": "Revokes `role` from `account`. If `account` had been granted `role`, emits a {RoleRevoked} event. Requirements: - the caller must have ``role``'s admin role. May emit a {RoleRevoked} event."
      },
      "supportsInterface(bytes4)": {
        "details": "See {IERC165-supportsInterface}."
      }
    },
    "title": "DocumentStore",
    "version": 1
  },
  "userdoc": {
    "events": {
      "DocumentIssued(bytes32)": {
        "notice": "Emitted when a document is issued"
      },
      "DocumentRevoked(bytes32)": {
        "notice": "Emitted when a document is revoked"
      }
    },
    "kind": "user",
    "methods": {
      "bulkIssue(bytes32[])": {
        "notice": "Issues multiple documents"
      },
      "bulkRevoke(bytes32[])": {
        "notice": "Revokes documents in bulk"
      },
      "constructor": {
        "notice": "Initialises the contract with a name and owner"
      },
      "documentIssued(bytes32)": {
        "notice": "A mapping of the document hash to the block number that was issued"
      },
      "documentRevoked(bytes32)": {
        "notice": "A mapping of the hash of the claim being revoked to the revocation block number"
      },
      "getIssuedBlock(bytes32)": {
        "notice": "Gets the block number at which a document was issued"
      },
      "isIssued(bytes32)": {
        "notice": "Checks if a document has been issued"
      },
      "isIssuedBefore(bytes32,uint256)": {
        "notice": "Checks if a document was issued before a specific block number (inclusive)"
      },
      "isRevoked(bytes32)": {
        "notice": "Checks if a document has been revoked"
      },
      "isRevokedBefore(bytes32,uint256)": {
        "notice": "Checks if a document was revoked before a specific block number (inclusive)"
      },
      "issue(bytes32)": {
        "notice": "Issues a document"
      },
      "name()": {
        "notice": "The name of the contract"
      },
      "revoke(bytes32)": {
        "notice": "Revokes a document"
      },
      "version()": {
        "notice": "The version of the contract"
      }
    },
    "notice": "A contract for storing and revoking documents with access control",
    "version": 1
  },
  "storageLayout": {
    "storage": [
      {
        "astId": 547,
        "contract": "contracts/DocumentStore.sol:DocumentStore",
        "label": "_initialized",
        "offset": 0,
        "slot": "0",
        "type": "t_uint8"
      },
      {
        "astId": 550,
        "contract": "contracts/DocumentStore.sol:DocumentStore",
        "label": "_initializing",
        "offset": 1,
        "slot": "0",
        "type": "t_bool"
      },
      {
        "astId": 6198,
        "contract": "contracts/DocumentStore.sol:DocumentStore",
        "label": "name",
        "offset": 0,
        "slot": "1",
        "type": "t_string_storage"
      },
      {
        "astId": 6201,
        "contract": "contracts/DocumentStore.sol:DocumentStore",
        "label": "version",
        "offset": 0,
        "slot": "2",
        "type": "t_string_storage"
      },
      {
        "astId": 6206,
        "contract": "contracts/DocumentStore.sol:DocumentStore",
        "label": "documentIssued",
        "offset": 0,
        "slot": "3",
        "type": "t_mapping(t_bytes32,t_uint256)"
      },
      {
        "astId": 6211,
        "contract": "contracts/DocumentStore.sol:DocumentStore",
        "label": "documentRevoked",
        "offset": 0,
        "slot": "4",
        "type": "t_mapping(t_bytes32,t_uint256)"
      },
      {
        "astId": 1080,
        "contract": "contracts/DocumentStore.sol:DocumentStore",
        "label": "__gap",
        "offset": 0,
        "slot": "5",
        "type": "t_array(t_uint256)50_storage"
      },
      {
        "astId": 1353,
        "contract": "contracts/DocumentStore.sol:DocumentStore",
        "label": "__gap",
        "offset": 0,
        "slot": "55",
        "type": "t_array(t_uint256)50_storage"
      },
      {
        "astId": 39,
        "contract": "contracts/DocumentStore.sol:DocumentStore",
        "label": "_roles",
        "offset": 0,
        "slot": "105",
        "type": "t_mapping(t_bytes32,t_struct(RoleData)34_storage)"
      },
      {
        "astId": 334,
        "contract": "contracts/DocumentStore.sol:DocumentStore",
        "label": "__gap",
        "offset": 0,
        "slot": "106",
        "type": "t_array(t_uint256)49_storage"
      },
      {
        "astId": 6488,
        "contract": "contracts/DocumentStore.sol:DocumentStore",
        "label": "certAddress",
        "offset": 0,
        "slot": "155",
        "type": "t_address"
      },
      {
        "astId": 6490,
        "contract": "contracts/DocumentStore.sol:DocumentStore",
        "label": "domainName",
        "offset": 0,
        "slot": "156",
        "type": "t_string_storage"
      }
    ],
    "types": {
      "t_address": {
        "encoding": "inplace",
        "label": "address",
        "numberOfBytes": "20"
      },
      "t_array(t_uint256)49_storage": {
        "base": "t_uint256",
        "encoding": "inplace",
        "label": "uint256[49]",
        "numberOfBytes": "1568"
      },
      "t_array(t_uint256)50_storage": {
        "base": "t_uint256",
        "encoding": "inplace",
        "label": "uint256[50]",
        "numberOfBytes": "1600"
      },
      "t_bool": {
        "encoding": "inplace",
        "label": "bool",
        "numberOfBytes": "1"
      },
      "t_bytes32": {
        "encoding": "inplace",
        "label": "bytes32",
        "numberOfBytes": "32"
      },
      "t_mapping(t_address,t_bool)": {
        "encoding": "mapping",
        "key": "t_address",
        "label": "mapping(address => bool)",
        "numberOfBytes": "32",
        "value": "t_bool"
      },
      "t_mapping(t_bytes32,t_struct(RoleData)34_storage)": {
        "encoding": "mapping",
        "key": "t_bytes32",
        "label": "mapping(bytes32 => struct AccessControlUpgradeable.RoleData)",
        "numberOfBytes": "32",
        "value": "t_struct(RoleData)34_storage"
      },
      "t_mapping(t_bytes32,t_uint256)": {
        "encoding": "mapping",
        "key": "t_bytes32",
        "label": "mapping(bytes32 => uint256)",
        "numberOfBytes": "32",
        "value": "t_uint256"
      },
      "t_string_storage": {
        "encoding": "bytes",
        "label": "string",
        "numberOfBytes": "32"
      },
      "t_struct(RoleData)34_storage": {
        "encoding": "inplace",
        "label": "struct AccessControlUpgradeable.RoleData",
        "members": [
          {
            "astId": 31,
            "contract": "contracts/DocumentStore.sol:DocumentStore",
            "label": "members",
            "offset": 0,
            "slot": "0",
            "type": "t_mapping(t_address,t_bool)"
          },
          {
            "astId": 33,
            "contract": "contracts/DocumentStore.sol:DocumentStore",
            "label": "adminRole",
            "offset": 0,
            "slot": "1",
            "type": "t_bytes32"
          }
        ],
        "numberOfBytes": "64"
      },
      "t_uint256": {
        "encoding": "inplace",
        "label": "uint256",
        "numberOfBytes": "32"
      },
      "t_uint8": {
        "encoding": "inplace",
        "label": "uint8",
        "numberOfBytes": "1"
      }
    }
  }
}